{
  "_format": "hh-sol-artifact-1",
  "contractName": "GreenInit",
  "sourceName": "contracts/GreenInit.sol",
  "abi": [
    {
      "inputs": [],
      "stateMutability": "nonpayable",
      "type": "constructor"
    },
    {
      "anonymous": false,
      "inputs": [
        {
          "indexed": true,
          "internalType": "address",
          "name": "owner",
          "type": "address"
        },
        {
          "indexed": true,
          "internalType": "address",
          "name": "approved",
          "type": "address"
        },
        {
          "indexed": true,
          "internalType": "uint256",
          "name": "tokenId",
          "type": "uint256"
        }
      ],
      "name": "Approval",
      "type": "event"
    },
    {
      "anonymous": false,
      "inputs": [
        {
          "indexed": true,
          "internalType": "address",
          "name": "owner",
          "type": "address"
        },
        {
          "indexed": true,
          "internalType": "address",
          "name": "operator",
          "type": "address"
        },
        {
          "indexed": false,
          "internalType": "bool",
          "name": "approved",
          "type": "bool"
        }
      ],
      "name": "ApprovalForAll",
      "type": "event"
    },
    {
      "anonymous": false,
      "inputs": [
        {
          "indexed": true,
          "internalType": "address",
          "name": "from",
          "type": "address"
        },
        {
          "indexed": true,
          "internalType": "address",
          "name": "to",
          "type": "address"
        },
        {
          "indexed": true,
          "internalType": "uint256",
          "name": "tokenId",
          "type": "uint256"
        }
      ],
      "name": "Transfer",
      "type": "event"
    },
    {
      "inputs": [
        {
          "internalType": "address",
          "name": "to",
          "type": "address"
        },
        {
          "internalType": "uint256",
          "name": "tokenId",
          "type": "uint256"
        }
      ],
      "name": "approve",
      "outputs": [],
      "stateMutability": "nonpayable",
      "type": "function"
    },
    {
      "inputs": [
        {
          "internalType": "address",
          "name": "owner",
          "type": "address"
        }
      ],
      "name": "balanceOf",
      "outputs": [
        {
          "internalType": "uint256",
          "name": "",
          "type": "uint256"
        }
      ],
      "stateMutability": "view",
      "type": "function"
    },
    {
      "inputs": [
        {
          "internalType": "uint256",
          "name": "tokenId",
          "type": "uint256"
        }
      ],
      "name": "getApproved",
      "outputs": [
        {
          "internalType": "address",
          "name": "",
          "type": "address"
        }
      ],
      "stateMutability": "view",
      "type": "function"
    },
    {
      "inputs": [],
      "name": "getTokenId",
      "outputs": [
        {
          "internalType": "uint256",
          "name": "",
          "type": "uint256"
        }
      ],
      "stateMutability": "view",
      "type": "function"
    },
    {
      "inputs": [
        {
          "internalType": "address",
          "name": "owner",
          "type": "address"
        },
        {
          "internalType": "address",
          "name": "operator",
          "type": "address"
        }
      ],
      "name": "isApprovedForAll",
      "outputs": [
        {
          "internalType": "bool",
          "name": "",
          "type": "bool"
        }
      ],
      "stateMutability": "view",
      "type": "function"
    },
    {
      "inputs": [
        {
          "internalType": "address",
          "name": "_nftAddress",
          "type": "address"
        },
        {
          "internalType": "uint256",
          "name": "_retireCounts",
          "type": "uint256"
        }
      ],
      "name": "issueNFT",
      "outputs": [],
      "stateMutability": "nonpayable",
      "type": "function"
    },
    {
      "inputs": [],
      "name": "name",
      "outputs": [
        {
          "internalType": "string",
          "name": "",
          "type": "string"
        }
      ],
      "stateMutability": "view",
      "type": "function"
    },
    {
      "inputs": [
        {
          "internalType": "uint256",
          "name": "tokenId",
          "type": "uint256"
        }
      ],
      "name": "ownerOf",
      "outputs": [
        {
          "internalType": "address",
          "name": "",
          "type": "address"
        }
      ],
      "stateMutability": "view",
      "type": "function"
    },
    {
      "inputs": [
        {
          "internalType": "address",
          "name": "from",
          "type": "address"
        },
        {
          "internalType": "address",
          "name": "to",
          "type": "address"
        },
        {
          "internalType": "uint256",
          "name": "tokenId",
          "type": "uint256"
        }
      ],
      "name": "safeTransferFrom",
      "outputs": [],
      "stateMutability": "nonpayable",
      "type": "function"
    },
    {
      "inputs": [
        {
          "internalType": "address",
          "name": "from",
          "type": "address"
        },
        {
          "internalType": "address",
          "name": "to",
          "type": "address"
        },
        {
          "internalType": "uint256",
          "name": "tokenId",
          "type": "uint256"
        },
        {
          "internalType": "bytes",
          "name": "data",
          "type": "bytes"
        }
      ],
      "name": "safeTransferFrom",
      "outputs": [],
      "stateMutability": "nonpayable",
      "type": "function"
    },
    {
      "inputs": [
        {
          "internalType": "address",
          "name": "operator",
          "type": "address"
        },
        {
          "internalType": "bool",
          "name": "approved",
          "type": "bool"
        }
      ],
      "name": "setApprovalForAll",
      "outputs": [],
      "stateMutability": "nonpayable",
      "type": "function"
    },
    {
      "inputs": [
        {
          "internalType": "bytes4",
          "name": "interfaceId",
          "type": "bytes4"
        }
      ],
      "name": "supportsInterface",
      "outputs": [
        {
          "internalType": "bool",
          "name": "",
          "type": "bool"
        }
      ],
      "stateMutability": "view",
      "type": "function"
    },
    {
      "inputs": [],
      "name": "symbol",
      "outputs": [
        {
          "internalType": "string",
          "name": "",
          "type": "string"
        }
      ],
      "stateMutability": "view",
      "type": "function"
    },
    {
      "inputs": [
        {
          "internalType": "uint256",
          "name": "index",
          "type": "uint256"
        }
      ],
      "name": "tokenByIndex",
      "outputs": [
        {
          "internalType": "uint256",
          "name": "",
          "type": "uint256"
        }
      ],
      "stateMutability": "view",
      "type": "function"
    },
    {
      "inputs": [
        {
          "internalType": "address",
          "name": "owner",
          "type": "address"
        },
        {
          "internalType": "uint256",
          "name": "index",
          "type": "uint256"
        }
      ],
      "name": "tokenOfOwnerByIndex",
      "outputs": [
        {
          "internalType": "uint256",
          "name": "",
          "type": "uint256"
        }
      ],
      "stateMutability": "view",
      "type": "function"
    },
    {
      "inputs": [
        {
          "internalType": "uint256",
          "name": "tokenId",
          "type": "uint256"
        }
      ],
      "name": "tokenURI",
      "outputs": [
        {
          "internalType": "string",
          "name": "",
          "type": "string"
        }
      ],
      "stateMutability": "view",
      "type": "function"
    },
    {
      "inputs": [],
      "name": "totalSupply",
      "outputs": [
        {
          "internalType": "uint256",
          "name": "",
          "type": "uint256"
        }
      ],
      "stateMutability": "view",
      "type": "function"
    },
    {
      "inputs": [
        {
          "internalType": "address",
          "name": "from",
          "type": "address"
        },
        {
          "internalType": "address",
          "name": "to",
          "type": "address"
        },
        {
          "internalType": "uint256",
          "name": "tokenId",
          "type": "uint256"
        }
      ],
      "name": "transferFrom",
      "outputs": [],
      "stateMutability": "nonpayable",
      "type": "function"
    },
    {
      "inputs": [
        {
          "internalType": "address",
          "name": "",
          "type": "address"
        }
      ],
      "name": "userMinted",
      "outputs": [
        {
          "internalType": "bool",
          "name": "",
          "type": "bool"
        }
      ],
      "stateMutability": "view",
      "type": "function"
    }
  ],
  "bytecode": "0x60806040523480156200001157600080fd5b506040518060400160405280600f81526020017f477265656e496e697469617469766500000000000000000000000000000000008152506040518060400160405280600381526020017f474e54000000000000000000000000000000000000000000000000000000000081525081600090816200008f919062000324565b508060019081620000a1919062000324565b5050506200040b565b600081519050919050565b7f4e487b7100000000000000000000000000000000000000000000000000000000600052604160045260246000fd5b7f4e487b7100000000000000000000000000000000000000000000000000000000600052602260045260246000fd5b600060028204905060018216806200012c57607f821691505b602082108103620001425762000141620000e4565b5b50919050565b60008190508160005260206000209050919050565b60006020601f8301049050919050565b600082821b905092915050565b600060088302620001ac7fffffffffffffffffffffffffffffffffffffffffffffffffffffffffffffffff826200016d565b620001b886836200016d565b95508019841693508086168417925050509392505050565b6000819050919050565b6000819050919050565b600062000205620001ff620001f984620001d0565b620001da565b620001d0565b9050919050565b6000819050919050565b6200022183620001e4565b6200023962000230826200020c565b8484546200017a565b825550505050565b600090565b6200025062000241565b6200025d81848462000216565b505050565b5b8181101562000285576200027960008262000246565b60018101905062000263565b5050565b601f821115620002d4576200029e8162000148565b620002a9846200015d565b81016020851015620002b9578190505b620002d1620002c8856200015d565b83018262000262565b50505b505050565b600082821c905092915050565b6000620002f960001984600802620002d9565b1980831691505092915050565b6000620003148383620002e6565b9150826002028217905092915050565b6200032f82620000aa565b67ffffffffffffffff8111156200034b576200034a620000b5565b5b62000357825462000113565b6200036482828562000289565b600060209050601f8311600181146200039c576000841562000387578287015190505b62000393858262000306565b86555062000403565b601f198416620003ac8662000148565b60005b82811015620003d657848901518255600182019150602085019450602081019050620003af565b86831015620003f65784890151620003f2601f891682620002e6565b8355505b6001600288020188555050505b505050505050565b6137d3806200041b6000396000f3fe608060405234801561001057600080fd5b50600436106101215760003560e01c806342842e0e116100ad578063a22cb46511610071578063a22cb46514610342578063b88d4fde1461035e578063c87b56dd1461037a578063e1634164146103aa578063e985e9c5146103c657610121565b806342842e0e146102785780634f6ccce7146102945780636352211e146102c457806370a08231146102f457806395d89b411461032457610121565b8063095ea7b3116100f4578063095ea7b3146101c257806318160ddd146101de5780631aa5e872146101fc57806323b872dd1461022c5780632f745c591461024857610121565b8063010a38f51461012657806301ffc9a71461014457806306fdde0314610174578063081812fc14610192575b600080fd5b61012e6103f6565b60405161013b919061239f565b60405180910390f35b61015e60048036038101906101599190612426565b610496565b60405161016b919061246e565b60405180910390f35b61017c6104a8565b6040516101899190612519565b60405180910390f35b6101ac60048036038101906101a79190612567565b61053a565b6040516101b991906125d5565b60405180910390f35b6101dc60048036038101906101d7919061261c565b610580565b005b6101e6610697565b6040516101f3919061239f565b60405180910390f35b6102166004803603810190610211919061265c565b6106a4565b604051610223919061246e565b60405180910390f35b61024660048036038101906102419190612689565b6106c4565b005b610262600480360381019061025d919061261c565b610724565b60405161026f919061239f565b60405180910390f35b610292600480360381019061028d9190612689565b6107c9565b005b6102ae60048036038101906102a99190612567565b6107e9565b6040516102bb919061239f565b60405180910390f35b6102de60048036038101906102d99190612567565b61085a565b6040516102eb91906125d5565b60405180910390f35b61030e6004803603810190610309919061265c565b6108e0565b60405161031b919061239f565b60405180910390f35b61032c610997565b6040516103399190612519565b60405180910390f35b61035c60048036038101906103579190612708565b610a29565b005b6103786004803603810190610373919061287d565b610a3f565b005b610394600480360381019061038f9190612567565b610aa1565b6040516103a19190612519565b60405180910390f35b6103c460048036038101906103bf919061261c565b610ab3565b005b6103e060048036038101906103db9190612900565b610d3e565b6040516103ed919061246e565b60405180910390f35b6000600c60003373ffffffffffffffffffffffffffffffffffffffff1673ffffffffffffffffffffffffffffffffffffffff16815260200190815260200160002060009054906101000a900460ff16610484576040517f08c379a000000000000000000000000000000000000000000000000000000000815260040161047b9061298c565b60405180910390fd5b60006104903382610724565b91505090565b60006104a182610dd2565b9050919050565b6060600080546104b7906129db565b80601f01602080910402602001604051908101604052809291908181526020018280546104e3906129db565b80156105305780601f1061050557610100808354040283529160200191610530565b820191906000526020600020905b81548152906001019060200180831161051357829003601f168201915b5050505050905090565b600061054582610e4c565b6004600083815260200190815260200160002060009054906101000a900473ffffffffffffffffffffffffffffffffffffffff169050919050565b600061058b8261085a565b90508073ffffffffffffffffffffffffffffffffffffffff168373ffffffffffffffffffffffffffffffffffffffff16036105fb576040517f08c379a00000000000000000000000000000000000000000000000000000000081526004016105f290612a7e565b60405180910390fd5b8073ffffffffffffffffffffffffffffffffffffffff1661061a610e97565b73ffffffffffffffffffffffffffffffffffffffff161480610649575061064881610643610e97565b610d3e565b5b610688576040517f08c379a000000000000000000000000000000000000000000000000000000000815260040161067f90612b10565b60405180910390fd5b6106928383610e9f565b505050565b6000600880549050905090565b600c6020528060005260406000206000915054906101000a900460ff1681565b6106d56106cf610e97565b82610f58565b610714576040517f08c379a000000000000000000000000000000000000000000000000000000000815260040161070b90612ba2565b60405180910390fd5b61071f838383610fed565b505050565b600061072f836108e0565b8210610770576040517f08c379a000000000000000000000000000000000000000000000000000000000815260040161076790612c34565b60405180910390fd5b600660008473ffffffffffffffffffffffffffffffffffffffff1673ffffffffffffffffffffffffffffffffffffffff168152602001908152602001600020600083815260200190815260200160002054905092915050565b6107e483838360405180602001604052806000815250610a3f565b505050565b60006107f3610697565b8210610834576040517f08c379a000000000000000000000000000000000000000000000000000000000815260040161082b90612cc6565b60405180910390fd5b6008828154811061084857610847612ce6565b5b90600052602060002001549050919050565b600080610866836112e6565b9050600073ffffffffffffffffffffffffffffffffffffffff168173ffffffffffffffffffffffffffffffffffffffff16036108d7576040517f08c379a00000000000000000000000000000000000000000000000000000000081526004016108ce90612d61565b60405180910390fd5b80915050919050565b60008073ffffffffffffffffffffffffffffffffffffffff168273ffffffffffffffffffffffffffffffffffffffff1603610950576040517f08c379a000000000000000000000000000000000000000000000000000000000815260040161094790612df3565b60405180910390fd5b600360008373ffffffffffffffffffffffffffffffffffffffff1673ffffffffffffffffffffffffffffffffffffffff168152602001908152602001600020549050919050565b6060600180546109a6906129db565b80601f01602080910402602001604051908101604052809291908181526020018280546109d2906129db565b8015610a1f5780601f106109f457610100808354040283529160200191610a1f565b820191906000526020600020905b815481529060010190602001808311610a0257829003601f168201915b5050505050905090565b610a3b610a34610e97565b8383611323565b5050565b610a50610a4a610e97565b83610f58565b610a8f576040517f08c379a0000000000000000000000000000000000000000000000000000000008152600401610a8690612ba2565b60405180910390fd5b610a9b8484848461148f565b50505050565b6060610aac826114eb565b9050919050565b600c60003373ffffffffffffffffffffffffffffffffffffffff1673ffffffffffffffffffffffffffffffffffffffff16815260200190815260200160002060009054906101000a900460ff1615610c795760008273ffffffffffffffffffffffffffffffffffffffff16632f745c593360006040518363ffffffff1660e01b8152600401610b43929190612e58565b602060405180830381865afa158015610b60573d6000803e3d6000fd5b505050506040513d601f19601f82011682018060405250810190610b849190612e96565b90506002821015610bd95760006040518060400160405280600981526020017f6e6674312e6a736f6e00000000000000000000000000000000000000000000008152509050610bd382826115fd565b50610c73565b6003821015610c2c5760006040518060400160405280600981526020017f6e6674322e6a736f6e00000000000000000000000000000000000000000000008152509050610c2682826115fd565b50610c72565b60006040518060400160405280600981526020017f6e6674332e6a736f6e00000000000000000000000000000000000000000000008152509050610c7082826115fd565b505b5b50610d3a565b6000610c85600b61166a565b905060006040518060400160405280600981526020017f6e6674312e6a736f6e00000000000000000000000000000000000000000000008152509050610ccb3383611678565b610cd582826115fd565b6001600c60003373ffffffffffffffffffffffffffffffffffffffff1673ffffffffffffffffffffffffffffffffffffffff16815260200190815260200160002060006101000a81548160ff021916908315150217905550610d37600b611696565b50505b5050565b6000600560008473ffffffffffffffffffffffffffffffffffffffff1673ffffffffffffffffffffffffffffffffffffffff16815260200190815260200160002060008373ffffffffffffffffffffffffffffffffffffffff1673ffffffffffffffffffffffffffffffffffffffff16815260200190815260200160002060009054906101000a900460ff16905092915050565b60007f780e9d63000000000000000000000000000000000000000000000000000000007bffffffffffffffffffffffffffffffffffffffffffffffffffffffff1916827bffffffffffffffffffffffffffffffffffffffffffffffffffffffff19161480610e455750610e44826116ac565b5b9050919050565b610e558161178e565b610e94576040517f08c379a0000000000000000000000000000000000000000000000000000000008152600401610e8b90612d61565b60405180910390fd5b50565b600033905090565b816004600083815260200190815260200160002060006101000a81548173ffffffffffffffffffffffffffffffffffffffff021916908373ffffffffffffffffffffffffffffffffffffffff160217905550808273ffffffffffffffffffffffffffffffffffffffff16610f128361085a565b73ffffffffffffffffffffffffffffffffffffffff167f8c5be1e5ebec7d5bd14f71427d1e84f3dd0314c0f7b2291e5b200ac8c7c3b92560405160405180910390a45050565b600080610f648361085a565b90508073ffffffffffffffffffffffffffffffffffffffff168473ffffffffffffffffffffffffffffffffffffffff161480610fa65750610fa58185610d3e565b5b80610fe457508373ffffffffffffffffffffffffffffffffffffffff16610fcc8461053a565b73ffffffffffffffffffffffffffffffffffffffff16145b91505092915050565b8273ffffffffffffffffffffffffffffffffffffffff1661100d8261085a565b73ffffffffffffffffffffffffffffffffffffffff1614611063576040517f08c379a000000000000000000000000000000000000000000000000000000000815260040161105a90612f35565b60405180910390fd5b600073ffffffffffffffffffffffffffffffffffffffff168273ffffffffffffffffffffffffffffffffffffffff16036110d2576040517f08c379a00000000000000000000000000000000000000000000000000000000081526004016110c990612fc7565b60405180910390fd5b6110df83838360016117cf565b8273ffffffffffffffffffffffffffffffffffffffff166110ff8261085a565b73ffffffffffffffffffffffffffffffffffffffff1614611155576040517f08c379a000000000000000000000000000000000000000000000000000000000815260040161114c90612f35565b60405180910390fd5b6004600082815260200190815260200160002060006101000a81549073ffffffffffffffffffffffffffffffffffffffff02191690556001600360008573ffffffffffffffffffffffffffffffffffffffff1673ffffffffffffffffffffffffffffffffffffffff168152602001908152602001600020600082825403925050819055506001600360008473ffffffffffffffffffffffffffffffffffffffff1673ffffffffffffffffffffffffffffffffffffffff16815260200190815260200160002060008282540192505081905550816002600083815260200190815260200160002060006101000a81548173ffffffffffffffffffffffffffffffffffffffff021916908373ffffffffffffffffffffffffffffffffffffffff160217905550808273ffffffffffffffffffffffffffffffffffffffff168473ffffffffffffffffffffffffffffffffffffffff167fddf252ad1be2c89b69c2b068fc378daa952ba7f163c4a11628f55a4df523b3ef60405160405180910390a46112e183838360016117e1565b505050565b60006002600083815260200190815260200160002060009054906101000a900473ffffffffffffffffffffffffffffffffffffffff169050919050565b8173ffffffffffffffffffffffffffffffffffffffff168373ffffffffffffffffffffffffffffffffffffffff1603611391576040517f08c379a000000000000000000000000000000000000000000000000000000000815260040161138890613033565b60405180910390fd5b80600560008573ffffffffffffffffffffffffffffffffffffffff1673ffffffffffffffffffffffffffffffffffffffff16815260200190815260200160002060008473ffffffffffffffffffffffffffffffffffffffff1673ffffffffffffffffffffffffffffffffffffffff16815260200190815260200160002060006101000a81548160ff0219169083151502179055508173ffffffffffffffffffffffffffffffffffffffff168373ffffffffffffffffffffffffffffffffffffffff167f17307eab39ab6107e8899845ad3d59bd9653f200f220920489ca2b5937696c3183604051611482919061246e565b60405180910390a3505050565b61149a848484610fed565b6114a6848484846117e7565b6114e5576040517f08c379a00000000000000000000000000000000000000000000000000000000081526004016114dc906130c5565b60405180910390fd5b50505050565b60606114f682610e4c565b6000600a60008481526020019081526020016000208054611516906129db565b80601f0160208091040260200160405190810160405280929190818152602001828054611542906129db565b801561158f5780601f106115645761010080835404028352916020019161158f565b820191906000526020600020905b81548152906001019060200180831161157257829003601f168201915b5050505050905060006115a061196e565b905060008151036115b55781925050506115f8565b6000825111156115ea5780826040516020016115d2929190613121565b604051602081830303815290604052925050506115f8565b6115f38461198e565b925050505b919050565b6116068261178e565b611645576040517f08c379a000000000000000000000000000000000000000000000000000000000815260040161163c906131b7565b60405180910390fd5b80600a600084815260200190815260200160002090816116659190613379565b505050565b600081600001549050919050565b6116928282604051806020016040528060008152506119f6565b5050565b6001816000016000828254019250508190555050565b60007f80ac58cd000000000000000000000000000000000000000000000000000000007bffffffffffffffffffffffffffffffffffffffffffffffffffffffff1916827bffffffffffffffffffffffffffffffffffffffffffffffffffffffff1916148061177757507f5b5e139f000000000000000000000000000000000000000000000000000000007bffffffffffffffffffffffffffffffffffffffffffffffffffffffff1916827bffffffffffffffffffffffffffffffffffffffffffffffffffffffff1916145b80611787575061178682611a51565b5b9050919050565b60008073ffffffffffffffffffffffffffffffffffffffff166117b0836112e6565b73ffffffffffffffffffffffffffffffffffffffff1614159050919050565b6117db84848484611abb565b50505050565b50505050565b60006118088473ffffffffffffffffffffffffffffffffffffffff16611c19565b15611961578373ffffffffffffffffffffffffffffffffffffffff1663150b7a02611831610e97565b8786866040518563ffffffff1660e01b815260040161185394939291906134a0565b6020604051808303816000875af192505050801561188f57506040513d601f19601f8201168201806040525081019061188c9190613501565b60015b611911573d80600081146118bf576040519150601f19603f3d011682016040523d82523d6000602084013e6118c4565b606091505b506000815103611909576040517f08c379a0000000000000000000000000000000000000000000000000000000008152600401611900906130c5565b60405180910390fd5b805181602001fd5b63150b7a0260e01b7bffffffffffffffffffffffffffffffffffffffffffffffffffffffff1916817bffffffffffffffffffffffffffffffffffffffffffffffffffffffff191614915050611966565b600190505b949350505050565b606060405180608001604052806044815260200161375a60449139905090565b606061199982610e4c565b60006119a361196e565b905060008151116119c357604051806020016040528060008152506119ee565b806119cd84611c3c565b6040516020016119de929190613121565b6040516020818303038152906040525b915050919050565b611a008383611d0a565b611a0d60008484846117e7565b611a4c576040517f08c379a0000000000000000000000000000000000000000000000000000000008152600401611a43906130c5565b60405180910390fd5b505050565b60007f01ffc9a7000000000000000000000000000000000000000000000000000000007bffffffffffffffffffffffffffffffffffffffffffffffffffffffff1916827bffffffffffffffffffffffffffffffffffffffffffffffffffffffff1916149050919050565b611ac784848484611f27565b6001811115611b0b576040517f08c379a0000000000000000000000000000000000000000000000000000000008152600401611b02906135a0565b60405180910390fd5b6000829050600073ffffffffffffffffffffffffffffffffffffffff168573ffffffffffffffffffffffffffffffffffffffff1603611b5257611b4d81611f2d565b611b91565b8373ffffffffffffffffffffffffffffffffffffffff168573ffffffffffffffffffffffffffffffffffffffff1614611b9057611b8f8582611f76565b5b5b600073ffffffffffffffffffffffffffffffffffffffff168473ffffffffffffffffffffffffffffffffffffffff1603611bd357611bce816120e3565b611c12565b8473ffffffffffffffffffffffffffffffffffffffff168473ffffffffffffffffffffffffffffffffffffffff1614611c1157611c1084826121b4565b5b5b5050505050565b6000808273ffffffffffffffffffffffffffffffffffffffff163b119050919050565b606060006001611c4b84612233565b01905060008167ffffffffffffffff811115611c6a57611c69612752565b5b6040519080825280601f01601f191660200182016040528015611c9c5781602001600182028036833780820191505090505b509050600082602001820190505b600115611cff578080600190039150507f3031323334353637383961626364656600000000000000000000000000000000600a86061a8153600a8581611cf357611cf26135c0565b5b04945060008503611caa575b819350505050919050565b600073ffffffffffffffffffffffffffffffffffffffff168273ffffffffffffffffffffffffffffffffffffffff1603611d79576040517f08c379a0000000000000000000000000000000000000000000000000000000008152600401611d709061363b565b60405180910390fd5b611d828161178e565b15611dc2576040517f08c379a0000000000000000000000000000000000000000000000000000000008152600401611db9906136a7565b60405180910390fd5b611dd06000838360016117cf565b611dd98161178e565b15611e19576040517f08c379a0000000000000000000000000000000000000000000000000000000008152600401611e10906136a7565b60405180910390fd5b6001600360008473ffffffffffffffffffffffffffffffffffffffff1673ffffffffffffffffffffffffffffffffffffffff16815260200190815260200160002060008282540192505081905550816002600083815260200190815260200160002060006101000a81548173ffffffffffffffffffffffffffffffffffffffff021916908373ffffffffffffffffffffffffffffffffffffffff160217905550808273ffffffffffffffffffffffffffffffffffffffff16600073ffffffffffffffffffffffffffffffffffffffff167fddf252ad1be2c89b69c2b068fc378daa952ba7f163c4a11628f55a4df523b3ef60405160405180910390a4611f236000838360016117e1565b5050565b50505050565b6008805490506009600083815260200190815260200160002081905550600881908060018154018082558091505060019003906000526020600020016000909190919091505550565b60006001611f83846108e0565b611f8d91906136f6565b9050600060076000848152602001908152602001600020549050818114612072576000600660008673ffffffffffffffffffffffffffffffffffffffff1673ffffffffffffffffffffffffffffffffffffffff168152602001908152602001600020600084815260200190815260200160002054905080600660008773ffffffffffffffffffffffffffffffffffffffff1673ffffffffffffffffffffffffffffffffffffffff168152602001908152602001600020600084815260200190815260200160002081905550816007600083815260200190815260200160002081905550505b6007600084815260200190815260200160002060009055600660008573ffffffffffffffffffffffffffffffffffffffff1673ffffffffffffffffffffffffffffffffffffffff16815260200190815260200160002060008381526020019081526020016000206000905550505050565b600060016008805490506120f791906136f6565b905060006009600084815260200190815260200160002054905060006008838154811061212757612126612ce6565b5b90600052602060002001549050806008838154811061214957612148612ce6565b5b9060005260206000200181905550816009600083815260200190815260200160002081905550600960008581526020019081526020016000206000905560088054806121985761219761372a565b5b6001900381819060005260206000200160009055905550505050565b60006121bf836108e0565b905081600660008573ffffffffffffffffffffffffffffffffffffffff1673ffffffffffffffffffffffffffffffffffffffff168152602001908152602001600020600083815260200190815260200160002081905550806007600084815260200190815260200160002081905550505050565b600080600090507a184f03e93ff9f4daa797ed6e38ed64bf6a1f0100000000000000008310612291577a184f03e93ff9f4daa797ed6e38ed64bf6a1f0100000000000000008381612287576122866135c0565b5b0492506040810190505b6d04ee2d6d415b85acef810000000083106122ce576d04ee2d6d415b85acef810000000083816122c4576122c36135c0565b5b0492506020810190505b662386f26fc1000083106122fd57662386f26fc1000083816122f3576122f26135c0565b5b0492506010810190505b6305f5e1008310612326576305f5e100838161231c5761231b6135c0565b5b0492506008810190505b612710831061234b576127108381612341576123406135c0565b5b0492506004810190505b6064831061236e5760648381612364576123636135c0565b5b0492506002810190505b600a831061237d576001810190505b80915050919050565b6000819050919050565b61239981612386565b82525050565b60006020820190506123b46000830184612390565b92915050565b6000604051905090565b600080fd5b600080fd5b60007fffffffff0000000000000000000000000000000000000000000000000000000082169050919050565b612403816123ce565b811461240e57600080fd5b50565b600081359050612420816123fa565b92915050565b60006020828403121561243c5761243b6123c4565b5b600061244a84828501612411565b91505092915050565b60008115159050919050565b61246881612453565b82525050565b6000602082019050612483600083018461245f565b92915050565b600081519050919050565b600082825260208201905092915050565b60005b838110156124c35780820151818401526020810190506124a8565b60008484015250505050565b6000601f19601f8301169050919050565b60006124eb82612489565b6124f58185612494565b93506125058185602086016124a5565b61250e816124cf565b840191505092915050565b6000602082019050818103600083015261253381846124e0565b905092915050565b61254481612386565b811461254f57600080fd5b50565b6000813590506125618161253b565b92915050565b60006020828403121561257d5761257c6123c4565b5b600061258b84828501612552565b91505092915050565b600073ffffffffffffffffffffffffffffffffffffffff82169050919050565b60006125bf82612594565b9050919050565b6125cf816125b4565b82525050565b60006020820190506125ea60008301846125c6565b92915050565b6125f9816125b4565b811461260457600080fd5b50565b600081359050612616816125f0565b92915050565b60008060408385031215612633576126326123c4565b5b600061264185828601612607565b925050602061265285828601612552565b9150509250929050565b600060208284031215612672576126716123c4565b5b600061268084828501612607565b91505092915050565b6000806000606084860312156126a2576126a16123c4565b5b60006126b086828701612607565b93505060206126c186828701612607565b92505060406126d286828701612552565b9150509250925092565b6126e581612453565b81146126f057600080fd5b50565b600081359050612702816126dc565b92915050565b6000806040838503121561271f5761271e6123c4565b5b600061272d85828601612607565b925050602061273e858286016126f3565b9150509250929050565b600080fd5b600080fd5b7f4e487b7100000000000000000000000000000000000000000000000000000000600052604160045260246000fd5b61278a826124cf565b810181811067ffffffffffffffff821117156127a9576127a8612752565b5b80604052505050565b60006127bc6123ba565b90506127c88282612781565b919050565b600067ffffffffffffffff8211156127e8576127e7612752565b5b6127f1826124cf565b9050602081019050919050565b82818337600083830152505050565b600061282061281b846127cd565b6127b2565b90508281526020810184848401111561283c5761283b61274d565b5b6128478482856127fe565b509392505050565b600082601f83011261286457612863612748565b5b813561287484826020860161280d565b91505092915050565b60008060008060808587031215612897576128966123c4565b5b60006128a587828801612607565b94505060206128b687828801612607565b93505060406128c787828801612552565b925050606085013567ffffffffffffffff8111156128e8576128e76123c9565b5b6128f48782880161284f565b91505092959194509250565b60008060408385031215612917576129166123c4565b5b600061292585828601612607565b925050602061293685828601612607565b9150509250929050565b7f5573657220686173206e6f74204e465400000000000000000000000000000000600082015250565b6000612976601083612494565b915061298182612940565b602082019050919050565b600060208201905081810360008301526129a581612969565b9050919050565b7f4e487b7100000000000000000000000000000000000000000000000000000000600052602260045260246000fd5b600060028204905060018216806129f357607f821691505b602082108103612a0657612a056129ac565b5b50919050565b7f4552433732313a20617070726f76616c20746f2063757272656e74206f776e6560008201527f7200000000000000000000000000000000000000000000000000000000000000602082015250565b6000612a68602183612494565b9150612a7382612a0c565b604082019050919050565b60006020820190508181036000830152612a9781612a5b565b9050919050565b7f4552433732313a20617070726f76652063616c6c6572206973206e6f7420746f60008201527f6b656e206f776e6572206f7220617070726f76656420666f7220616c6c000000602082015250565b6000612afa603d83612494565b9150612b0582612a9e565b604082019050919050565b60006020820190508181036000830152612b2981612aed565b9050919050565b7f4552433732313a2063616c6c6572206973206e6f7420746f6b656e206f776e6560008201527f72206f7220617070726f76656400000000000000000000000000000000000000602082015250565b6000612b8c602d83612494565b9150612b9782612b30565b604082019050919050565b60006020820190508181036000830152612bbb81612b7f565b9050919050565b7f455243373231456e756d657261626c653a206f776e657220696e646578206f7560008201527f74206f6620626f756e6473000000000000000000000000000000000000000000602082015250565b6000612c1e602b83612494565b9150612c2982612bc2565b604082019050919050565b60006020820190508181036000830152612c4d81612c11565b9050919050565b7f455243373231456e756d657261626c653a20676c6f62616c20696e646578206f60008201527f7574206f6620626f756e64730000000000000000000000000000000000000000602082015250565b6000612cb0602c83612494565b9150612cbb82612c54565b604082019050919050565b60006020820190508181036000830152612cdf81612ca3565b9050919050565b7f4e487b7100000000000000000000000000000000000000000000000000000000600052603260045260246000fd5b7f4552433732313a20696e76616c696420746f6b656e2049440000000000000000600082015250565b6000612d4b601883612494565b9150612d5682612d15565b602082019050919050565b60006020820190508181036000830152612d7a81612d3e565b9050919050565b7f4552433732313a2061646472657373207a65726f206973206e6f74206120766160008201527f6c6964206f776e65720000000000000000000000000000000000000000000000602082015250565b6000612ddd602983612494565b9150612de882612d81565b604082019050919050565b60006020820190508181036000830152612e0c81612dd0565b9050919050565b6000819050919050565b6000819050919050565b6000612e42612e3d612e3884612e13565b612e1d565b612386565b9050919050565b612e5281612e27565b82525050565b6000604082019050612e6d60008301856125c6565b612e7a6020830184612e49565b9392505050565b600081519050612e908161253b565b92915050565b600060208284031215612eac57612eab6123c4565b5b6000612eba84828501612e81565b91505092915050565b7f4552433732313a207472616e736665722066726f6d20696e636f72726563742060008201527f6f776e6572000000000000000000000000000000000000000000000000000000602082015250565b6000612f1f602583612494565b9150612f2a82612ec3565b604082019050919050565b60006020820190508181036000830152612f4e81612f12565b9050919050565b7f4552433732313a207472616e7366657220746f20746865207a65726f2061646460008201527f7265737300000000000000000000000000000000000000000000000000000000602082015250565b6000612fb1602483612494565b9150612fbc82612f55565b604082019050919050565b60006020820190508181036000830152612fe081612fa4565b9050919050565b7f4552433732313a20617070726f766520746f2063616c6c657200000000000000600082015250565b600061301d601983612494565b915061302882612fe7565b602082019050919050565b6000602082019050818103600083015261304c81613010565b9050919050565b7f4552433732313a207472616e7366657220746f206e6f6e20455243373231526560008201527f63656976657220696d706c656d656e7465720000000000000000000000000000602082015250565b60006130af603283612494565b91506130ba82613053565b604082019050919050565b600060208201905081810360008301526130de816130a2565b9050919050565b600081905092915050565b60006130fb82612489565b61310581856130e5565b93506131158185602086016124a5565b80840191505092915050565b600061312d82856130f0565b915061313982846130f0565b91508190509392505050565b7f45524337323155524953746f726167653a2055524920736574206f66206e6f6e60008201527f6578697374656e7420746f6b656e000000000000000000000000000000000000602082015250565b60006131a1602e83612494565b91506131ac82613145565b604082019050919050565b600060208201905081810360008301526131d081613194565b9050919050565b60008190508160005260206000209050919050565b60006020601f8301049050919050565b600082821b905092915050565b6000600883026132397fffffffffffffffffffffffffffffffffffffffffffffffffffffffffffffffff826131fc565b61324386836131fc565b95508019841693508086168417925050509392505050565b600061327661327161326c84612386565b612e1d565b612386565b9050919050565b6000819050919050565b6132908361325b565b6132a461329c8261327d565b848454613209565b825550505050565b600090565b6132b96132ac565b6132c4818484613287565b505050565b5b818110156132e8576132dd6000826132b1565b6001810190506132ca565b5050565b601f82111561332d576132fe816131d7565b613307846131ec565b81016020851015613316578190505b61332a613322856131ec565b8301826132c9565b50505b505050565b600082821c905092915050565b600061335060001984600802613332565b1980831691505092915050565b6000613369838361333f565b9150826002028217905092915050565b61338282612489565b67ffffffffffffffff81111561339b5761339a612752565b5b6133a582546129db565b6133b08282856132ec565b600060209050601f8311600181146133e357600084156133d1578287015190505b6133db858261335d565b865550613443565b601f1984166133f1866131d7565b60005b82811015613419578489015182556001820191506020850194506020810190506133f4565b868310156134365784890151613432601f89168261333f565b8355505b6001600288020188555050505b505050505050565b600081519050919050565b600082825260208201905092915050565b60006134728261344b565b61347c8185613456565b935061348c8185602086016124a5565b613495816124cf565b840191505092915050565b60006080820190506134b560008301876125c6565b6134c260208301866125c6565b6134cf6040830185612390565b81810360608301526134e18184613467565b905095945050505050565b6000815190506134fb816123fa565b92915050565b600060208284031215613517576135166123c4565b5b6000613525848285016134ec565b91505092915050565b7f455243373231456e756d657261626c653a20636f6e736563757469766520747260008201527f616e7366657273206e6f7420737570706f727465640000000000000000000000602082015250565b600061358a603583612494565b91506135958261352e565b604082019050919050565b600060208201905081810360008301526135b98161357d565b9050919050565b7f4e487b7100000000000000000000000000000000000000000000000000000000600052601260045260246000fd5b7f4552433732313a206d696e7420746f20746865207a65726f2061646472657373600082015250565b6000613625602083612494565b9150613630826135ef565b602082019050919050565b6000602082019050818103600083015261365481613618565b9050919050565b7f4552433732313a20746f6b656e20616c7265616479206d696e74656400000000600082015250565b6000613691601c83612494565b915061369c8261365b565b602082019050919050565b600060208201905081810360008301526136c081613684565b9050919050565b7f4e487b7100000000000000000000000000000000000000000000000000000000600052601160045260246000fd5b600061370182612386565b915061370c83612386565b9250828203905081811115613724576137236136c7565b5b92915050565b7f4e487b7100000000000000000000000000000000000000000000000000000000600052603160045260246000fdfe68747470733a2f2f697066732e696f2f697066732f516d506332597033596553384a576e72713765484a70354c426e445064794d334132544a46694750464b686e66482fa2646970667358221220136c92ff024e20e7e8d8373dbbf0b6db51e04c71339e2d09c25179f98e2765dd64736f6c63430008110033",
  "linkReferences": {},
  "deployedLinkReferences": {}
}